:08000F008F99D2022002FD22AC
:1000260075CBFF75CAFD759850D2AC75C834D2AF82
:100036003001FDE4F50B7400250BF8E2B4FA1774F1
:1000460001250BF8E2FFC394A0400BEFD394F950BF
:1000560005850B088007050BE50BB416D9E4F50BEF
:10006600E50B75F009A4FFE50B75F016A404FE2553
:1000760008FD2400F8E2FC74002FF8ECF274042D5D
:10008600F8E2D39418400E74012FF8E4F274022FAC
:10009600F8E4F2801BE5082EFD2403F8E2FC740167
:1000A6002FF8ECF274042DF8E2FD74022FF8EDF24D
:1000B600E5082EFD2408F8E2D39418400E74032FA9
:1000C600F8E4F274042FF8E4F2801874072DF8E2CD
:1000D600FC74032FF8ECF274082DF8E2FD74042F7B
:1000E600F8EDF2E5082EFD240CF8E2D39418400E44
:1000F60074052FF8E4F274062FF8E4F28018740BF6
:100106002DF8E2FC74052FF8ECF2740C2DF8E2FDE4
:1001160074062FF8EDF2E5082EFD2410F8E2D394CC
:1001260018400E74072FF8E4F274082FF8E4F280F2
:1001360018740F2DF8E2FC74072FF8ECF274102DEA
:10014600F8E2FE74082FF8EEF2050BE50B640A6080
:1001560003020066E4F50B7400250BF8E2FF1200BB
:100166000F050BE50BC3945A40EDC201D29C020069
:010176003652
:0300230002017760
:10017700C0E0C0D075D000C00030981DC2988599E6
:10018700097400250AF8E509F2050AE50AB4F10D34
:10019700C29C750A00D2018004C299C202D000D065
:0401A700D0D0E032A2
:03000000020003F8
:0C000300787FE4F6D8FD7581200200260D
:00000001FF
