:0E065500041100000000020B0000020800006B
:10060400C2AF75CBFF75CAFD759840D2AC75891120
:10061400758DFF758B9CE4F58CF58AD2ABD2A9D28B
:0D0624008E75C834D2AFD2A8D288C2892208
:10063100D2A5000000000000000000000000000042
:0406410000C2A5222C
:1005880030A4FDD28C20A4FDC28CAF8CEFFEAD8AC6
:100598007C00E42DF50CEC3EF50BE4F58CF58AAC0B
:1005A8000BAD0C1201D17B9A7A9979D9783F120058
:1005B80026E4FBFA79C8784212012F12020A8F1436
:0705C8008E138D128C11222D
:06064500C294C296AF163C
:0A064B008F99751801E51870FC2264
:03000300020006F2
:03000600051632AA
:03000B00020009E7
:0100090032C4
:03001B0002051CBF
:10051C00C0E0C0D0758DFF758B9C0509E509700294
:10052C000508E50FB4031BE515C39407500AD290D8
:10053C00D292D294D2968033C290C292C294C29676
:10054C008029E50FB40217E515C394055006D29027
:10055C00D2928013C290C292C295C297800DE50FC1
:10056C00B40108D291D293D295D2970515E515D343
:0C057C00940A4003751500D0D0D0E03286
:030023000205CF04
:1005CF00C0E0C0D075D000C00030981DC29885998A
:1005DF000E74002510F8E50EF20510E510B4F10EBB
:1005EF00C29C751000D2008005C299751800D0000A
:0505FF00D0D0D0E03275
:1002AA00120604C3E50994E8E50894034069E4F5F5
:1002BA0008F509120631120588E47F14FEFDFCAB2D
:1002CA0014AA13A912A811C3120299500E750F018C
:1002DA00C290C2921206457F628034E47F28FEFDF6
:1002EA00FCAB14AA13A912A811C3120299500E75D5
:1002FA000F02C291C2931206457F728012750F03D4
:10030A00C291C293C295C297AF1612064B7F67126B
:10031A00064BE4F516050AE50A640A7086C2A8C205
:10032A008EC290C292C294C296C291C293C295C220
:10033A0097F50AD29CFE3000FDE4F51774002517E4
:10034A00F8E2B4FA1774012517F8E2FFC394A04043
:10035A000BEFD394F9500585170D80070517E5179C
:10036A00B416D9E4F517E51775F009A4FFE5177572
:10037A00F016A404FD250DFC2400F8E2FB74002FFE
:10038A00F8EBF274042CF8E2D39418400E74012F9F
:10039A00F8E4F274022FF8E4F2801BE50D2DFC2438
:1003AA0003F8E2FB74012FF8EBF274042CF8E2FC78
:1003BA0074022FF8ECF2E50D2DFC2408F8E2D39430
:1003CA0018400E74032FF8E4F274042FF8E4F28054
:1003DA001874072CF8E2FB74032FF8EBF274082C5C
:1003EA00F8E2FC74042FF8ECF2E50D2DFC240CF86D
:1003FA00E2D39418400E74052FF8E4F274062FF82D
:10040A00E4F28018740B2CF8E2FB74052FF8EBF277
:10041A00740C2CF8E2FC74062FF8ECF2E50D2DFCB6
:10042A002410F8E2D39418400E74072FF8E4F274FB
:10043A00082FF8E4F28018740F2CF8E2FB74072FE7
:10044A00F8EBF274102CF8E2FD74082FF8EDF205BF
:10045A0017E517640A6003020370E4F517740025B0
:10046A0017F8E2FF12064B0517E517C3945A40ED39
:10047A00C200D29C0EEE640B6003020340C29CD2FF
:06048A00A8D28E0202ADB3
:10002600EC4D6011E8497017ED33EC3304600DE4D4
:10003600FCFFFEFD22E933E8330470F80202761273
:10004600024158046009E4CC248150062850090274
:10005600028028400302027DC0E0EB4A7044B9806A
:1000660006D0E0FB02026CEF4E701CBD8008EBFF71
:10007600EAFEE9FD80EBE98DF0A4FEE5F002010F52
:10008600E9CDF9EAFEEBFFEF89F0A4FCE5F0CE89B5
:10009600F0A42EFFE435F0CD89F0A42DFEE435F072
:1000A6008067EF4E7005BD80D780C3EF8BF0A4ACA0
:1000B600F0EE8BF0A42CFCE435F0F8EF8AF0A42CDB
:1000C600E5F038FCE433CB8DF0A42CFCE5F03BF8EE
:1000D600EE8AF0A42CFCE5F038F8E433CF89F0A4DE
:1000E6002CFCE5F038CF3400CE89F0A42FFFE5F0E4
:1000F6003EFEE433C98DF0A42EFEE5F039CD8AF03C
:10010600A42FFFE5F03EFEE43DFD33D0E0FB5007B3
:100116000BBB000F020280EC2CFCEF33FFEE33FE2C
:06012600ED33FD0202585A
:10012C00020280EC5D046005E8590470030202765B
:10013C00120241580460F6EC4860F2EC7004FDFECB
:10014C00FF22C860DB2481C85009C39860025006A6
:10015C0002027D9850CAF582E9294B4A7005AB82A0
:10016C0002026C75F0007C1A7880C3EF9BEE9AED5E
:10017C0099400DC3EF9BFFEE9AFEED99FDE842F01E
:10018C00DC23ACF0D0E0FFD0E0FED0E0FDAB822071
:10019C00E7101BEB60BAEC2CFCEF33FFEE33FEEDFB
:1001AC0033FD020258E803F830E705C0F075F000A3
:1001BC00EF2FFFEE33FEED33FD40B830E7C280AADF
:1001CC0075F020800E75F010800575F0087D007EAE
:1001DC00007F003392D530D50312028BEC334010E4
:1001EC00EF33FFEE33FEED33FDEC33FCD5F0ED22B7
:0E01FC00E5F0247EA2D513CC92E7CDCEFF22F3
:10020A00EDD2E7CD33EC3392D524814006E4FFFEEC
:10021A00FDFC22FCE4CFCECDCC24E0501174FF804B
:10022A00EDC3CC13CCCD13CDCE13CECF13CF0470E8
:07023A00F030D5DE02028B5B
:10024100E9D2E7C933E833F892D5EDD2E7CD33EC03
:0702510033FC5002B2D5227C
:10025800EC30E7100FBF000C0EBE00080DBD000407
:100268000BEB6014A2D5EB13FCED92E7FD2274FFB3
:10027800FCFDFEFF22E480F8A2D574FF13FC7D800C
:03028800E480EF20
:0300000002049067
:0C049000787FE4F6D8FD7581200204D7C7
:0E028B00C3E49FFFE49EFEE49DFDE49CFC2284
:10029900EB9FF5F0EA9E42F0E99D42F0E89C45F0BB
:0102A9002232
:10049C000202AAE493A3F8E493A34003F68001F2CA
:1004AC0008DFF48029E493A3F85407240CC8C33361
:1004BC00C4540F4420C8834004F456800146F6DF30
:1004CC00E4800B0102040810204080900655E47E65
:1004DC00019360BCA3FF543F30E509541FFEE49325
:1004EC00A360010ECF54C025E060A840B8E493A3EC
:1004FC00FAE493A3F8E493A3C8C582C8CAC583CA17
:10050C00F0A3C8C582C8CAC583CADFE9DEE780BECE
:010663000096
:00000001FF
